02                                                                                                                                                               
128572502200901000000S30672394631                   11COMPLEMENTARIAS                                                                                            
22857250200167384014401409537156938 2022092000000285000S01  080027350048966Bouix Mariet Solange          000000000000          0000020220920 0000000000000000000 
22857250200189764014405409538215492 2022092000000855000S01  080027431200045Vega Iara Magalí              000000000000          0000020220920 0000000000000000000 
22857250200168834014401409521421424 2022092000000570000S01  080020395296796LLAMAS NICOLAS FERNANDO       000000000000          0000020220920 0000000000000000000 
22857250200186304014402909533009041 2022092000001140000S01  080027427614757Cantero Guadalupe Soledad     000000000000          0000020220920 0000000000000000000 
22857250200167244014401409531898265 2022092000000285000S01  080027387742730Baez Gabriela Patricia        000000000000          0000020220920 0000000000000000000 
22857250200155604014401409483521451 2022092000001710000S01  080020360957811Lucca Marcico Adrian          000000000000          0000020220920 0000000000000000000 
22857250200176074014401409530847695 2022092000001140000S01  080020404144058Benitez Gustavo Nicolás       000000000000          0000020220920 0000000000000000000 
22857250200123414014401409410658269 2022092000000285000S01  080020329150276Rodriguez Guillermo Javier    000000000000          0000020220920 0000000000000000000 
22857250200147314014401409484421749 2022092000001045000S01  080027364090698ENRIQUEZ LAURA ANDREA         000000000000          0000020220920 0000000000000000000 
22857250200174354014401409502712662 2022092000000570000S01  080020392261738ENRIQUEZ DIEGO ARIEL          000000000000          0000020220920 0000000000000000000 
22857250200129454014401409458732545 2022092000000570000S01  080023335234979Viera Raúl Gabriel            000000000000          0000020220920 0000000000000000000 
22857250200167504014401409538761162 2022092000000855000S01  080027397052635Cardozo Luz Maria             000000000000          0000020220920 0000000000000000000 
22857250200137254014401409473150609 2022092000001425000S01  080020344515124Martinez Roberto Daniel       000000000000          0000020220920 0000000000000000000 
22857250200140674014401409470032986 2022092000001900000S01  080020349715946RIVEROS SANTOS MANUEL TADEO   000000000000          0000020220920 0000000000000000000 
22857250200153984014401409495326257 2022092000000807500S01  080027381980087SOLIS Fatima Itati            000000000000          0000020220920 0000000000000000000 
22857250200106534014401409409346751 2022092000002303750S01  080020274563886Do Santos Fabian Alcides      000000000000          0000020220920 0000000000000000000 
22857250200170184014401409519624536 2022092000001068750S01  080020372219565VARGAS HECTOR ALVARO SEBASTI  000000000000          0000020220920 0000000000000000000 
22857250200139784014401409474415480 2022092000001021250S01  080020350045725Galarza Zacovich Emilio Edil  000000000000          0000020220920 0000000000000000000 
22857250200105104014401409409357571 2022092000003728750S01  080020303619292Canteros Alfredo Javier       000000000000          0000020220920 0000000000000000000 
22857250200141094014401409470032872 2022092000001045000S01  080020361513593VIVEROS LUCAS DANIEL          000000000000          0000020220920 0000000000000000000 
22857250200128524014401409500720359 2022092000002042500S01  080027312628533López Marta Liliana           000000000000          0000020220920 0000000000000000000 
22857250200189994014405409532208401 2022092000002256250S01  080020407918461Zavallos Alberto Arnaldo      000000000000          0000020220920 0000000000000000000 
22857250200106514014401409409354873 2022092000001448750S01  080020296328139Daher Alejandro Sebastian     000000000000          0000020220920 0000000000000000000 
22857250200194694014402909541736447 2022092000001638750S01  080027435294516SALES ALEJANDRA ANTONELA      000000000000          0000020220920 0000000000000000000 
22857250200133494014401409463376783 2022092000001828750S01  080020337315756De Asis Cesar Oscar           000000000000          0000020220920 0000000000000000000 
22857250200165214014401409516749799 2022092000000997500S01  080020401944738VON OELFFEN GUILLERMO         000000000000          0000020220920 0000000000000000000 
22857250200154264014401409487606165 2022092000001045000S01  080020387773372Acuña Gerardo Vicente         000000000000          0000020220920 0000000000000000000 
22857250200187224014405409538122569 2022092000000688750S01  080020415020822García Leonardo Manuel        000000000000          0000020220920 0000000000000000000 
22857250200168324014401409537156882 2022092000001353750S01  080027401958830García Da Rosa Nadia Vanessa  000000000000          0000020220920 0000000000000000000 
22857250200160654014401409490144670 2022092000000213750S01  080020344505048GOMEZ Walter Orlando          000000000000          0000020220920 0000000000000000000 
22857250200117814014401409469008055 2022092000001068750S01  080020307483301Fernandez Francisco Javier    000000000000          0000020220920 0000000000000000000 
22857250200183754014401409530527278 2022092000001258750S01  080020364576723Martinez Franco               000000000000          0000020220920 0000000000000000000 
22857250200169194014401409534049585 2022092000001163750S01  080020407077750Monteggia Cristian Ramón      000000000000          0000020220920 0000000000000000000 
22857250200115324014401409409350367 2022092000001187500S01  080020283874614Chavez Silbino Yoshio         000000000000          0000020220920 0000000000000000000 
22857250200119484014401409409365316 2022092000001733750S01  080020325603411Arrieta Ramón Alejandro       000000000000          0000020220920 0000000000000000000 
22857250200164124014401409499422562 2022092000000475000S01  080027390469158MARMELIK Maria Belen          000000000000          0000020220920 0000000000000000000 
22857250200171444014401409494381444 2022092000001852500S01  080020364548894FERNANDEZ Emanuel Ricardo     000000000000          0000020220920 0000000000000000000 
22857250200178184014401409530527236 2022092000000190000S01  080027402813828Verón Damaris Marianela       000000000000          0000020220920 0000000000000000000 
22857250200083614014401409409332738 2022092000000190000S01  080020249854124Esquivel Ramón Alberto        000000000000          0000020220920 0000000000000000000 
22857250200110914014401409409344698 2022092000001377500S01  080020268715658Aguirre Gabriel José          000000000000          0000020220920 0000000000000000000 
22857250200095004014401409474832708 2022092000002375000S01  080020276625897Benitez Cristian Rene         000000000000          0000020220920 0000000000000000000 
22857250200169384014401409523995523 2022092000000783750S01  080020392268171Pacheco Jorge Gabriel         000000000000          0000020220920 0000000000000000000 
22857250200140634014401409485378741 2022092000000213750S01  080020343326948Rasmussen Cesar Omar          000000000000          0000020220920 0000000000000000000 
22857250200116454014401409409365417 2022092000001401250S01  080020326083357Davalos Marcos Antonio        000000000000          0000020220920 0000000000000000000 
22857250200116944014401409480085468 2022092000000997500S01  080020317877448Marquez Enrique Daniel        000000000000          0000020220920 0000000000000000000 
22857250200129584014401409500719571 2022092000000190000S01  080023349714299ALVEZ JORGE EMANUEL           000000000000          0000020220920 0000000000000000000 
22857250200150124014401409503477748 2022092000000190000S01  080027371584760GONZALEZ YENIFER JUDIT        000000000000          0000020220920 0000000000000000000 
22857250200121344014401409409367004 2022092000000760000S01  080020332171128Rodriguez Diego Orlando       000000000000          0000020220920 0000000000000000000 
22857250200138604014401409483730853 2022092000000190000S01  080020367831031Riveros Santos Ariel Maximil  000000000000          0000020220920 0000000000000000000 
22857250200107654014401409483674069 2022092000000213750S01  080020273525050Ramirez Virgilio              000000000000          0000020220920 0000000000000000000 
22857250200125644014401409411134100 2022092000000475000S01  080020340181442Daher Jose Leonardo           000000000000          0000020220920 0000000000000000000 
22857250200167124014401409531442295 2022092000000213750S01  080020364596473Amarilla José Luis            000000000000          0000020220920 0000000000000000000 
22857250200102754014401409409361754 2022092000000380000S01  080020313617905Alvarenga Pedro Ignacio       000000000000          0000020220920 0000000000000000000 
22857250200145594014401409489625517 2022092000000950000S01  080020367834197DIAZ RAMON ANASTACIO          000000000000          0000020220920 0000000000000000000 
22857250200105184014401409478307949 2022092000003040000S01  080020287391502Dominguez César Daniel        000000000000          0000020220920 0000000000000000000 
22857250200141514014401409472534118 2022092000000570000S01  080027330133215Correa Gabriela Gisel         000000000000          0000020220920 0000000000000000000 
22857250200107314014401409470602495 2022092000000380000S01  080027279199753Mendez Laura Del Carmen       000000000000          0000020220920 0000000000000000000 
22857250200155914014401409480502558 2022092000000475000S01  080020387773739Mora Dario Hector             000000000000          0000020220920 0000000000000000000 
22857250200123224014401409410658070 2022092000002565000S01  080020323054542Morales Alejandro             000000000000          0000020220920 0000000000000000000 
22857250200088344014401409409326926 2022092000001710000S01  080020229806921Cabrera Juan Domingo          000000000000          0000020220920 0000000000000000000 
22857250200106004014401409409356877 2022092000002280000S01  080020301338644Alfonzo Ricardo Adan          000000000000          0000020220920 0000000000000000000 
22857250200153324014401409495326228 2022092000000570000S01  080027362097822LITWINIUK Ana Paula           000000000000          0000020220920 0000000000000000000 
22857250200189394014407709541372166 2022092000001710000S01  080020397046495SILBERO GUILLERMO CESAR       000000000000          0000020220920 0000000000000000000 
22857250200146164014401409487729561 2022092000002565000S01  080020323054550MORALEZ ROGELIO               000000000000          0000020220920 0000000000000000000 
22857250200108074014401409409356864 2022092000000285000S01  080020301338563Vera Rodriguez Fernando Gabr  000000000000          0000020220920 0000000000000000000 
22857250200146374014401409500720812 2022092000000570000S01  080020364575093RODRIGUEZ OSCAR ANDRES        000000000000          0000020220920 0000000000000000000 
22857250200095164014401409409333302 2022092000001140000S01  080020252014013Cerdan Victor Enrique         000000000000          0000020220920 0000000000000000000 
22857250200105824014401409409359139 2022092000001710000S01  080020306198549Vargas Carlos Hernán          000000000000          0000020220920 0000000000000000000 
22857250200074854014401409409323693 2022092000002850000S01  080020213039440Zalazar Julio Cesar           000000000000          0000020220920 0000000000000000000 
22857250200145674014401409487607377 2022092000001235000S01  080020364554487Espindola Pablo Ivan          000000000000          0000020220920 0000000000000000000 
22857250200140144014401409479997213 2022092000001900000S01  080020324356941MACHADO JULIO ERNESTO         000000000000          0000020220920 0000000000000000000 
22857250200095034014401409409332679 2022092000000190000S01  080020249851826Britez Julio de los Santos    000000000000          0000020220920 0000000000000000000 
22857250200121854014401409409360236 2022092000002090000S01  080020309352972Villalba Gonzalo Damián       000000000000          0000020220920 0000000000000000000 
22857250200108184014401409409351364 2022092000001900000S01  080020286755373Acosta Rene Antolin           000000000000          0000020220920 0000000000000000000 
22857250200103434014401409409349824 2022092000000760000S01  080020282560764Cardozo Sergio Zenón          000000000000          0000020220920 0000000000000000000 
22857250200133454014401409463376738 2022092000001330000S01  080020403378276Da Silva Diego Armando        000000000000          0000020220920 0000000000000000000 
22857250200148944014401409484216000 2022092000001520000S01  080023311104624Acuña Maria de los Angeles    000000000000          0000020220920 0000000000000000000 
22857250200095644014401409409346865 2022092000002660000S01  080020274634635Meza Ramón Antonio            000000000000          0000020220920 0000000000000000000 
22857250200184454014401409541736418 2022092000001615000S01  080023404108344MARTINEZ ALDANA GABRIELA      000000000000          0000020220920 0000000000000000000 
22857250200141404014401409469740274 2022092000000760000S01  080027299891254CARDOZO ANALIA SUSANA         000000000000          0000020220920 0000000000000000000 
22857250200144294014401409473173288 2022092000001330000S01  080020325601478Javier Cristian Rafael        000000000000          0000020220920 0000000000000000000 
22857250200151094014401409489625588 2022092000001330000S01  080027367836194STADLESKI Yanina Gisel        000000000000          0000020220920 0000000000000000000 
22857250200160214014401409487813039 2022092000000190000S01  080020313611567DELGADO WALTER ALEJANDRO      000000000000          0000020220920 0000000000000000000 
22857250200163364014401409536093968 2022092000000380000S01  080020392269305Fernández Juan Gabriel        000000000000          0000020220920 0000000000000000000 
22857250200087814014401409479997040 2022092000002850000S01  080027261293264Sosa Patricia Raquel          000000000000          0000020220920 0000000000000000000 
22857250200131064014401409459674224 2022092000000760000S01  080020329154859Cardozo Gustavo ariel         000000000000          0000020220920 0000000000000000000 
22857250200088324014401409409328584 2022092000000680000S01  080020236751830Cabaña Enrrique Omar          000000000000          0000020220920 0000000000000000000 
22857250200100874014401409409349114 2022092000000380000S01  080020280179621Rodriguez Oscar Alfredo       000000000000          0000020220920 0000000000000000000 
22857250200110194014401409409362096 2022092000000760000S01  080020314716036Brites Esteban Omar           000000000000          0000020220920 0000000000000000000 
22857250200119954014401409409352244 2022092000000760000S01  080020288899747Cristaldo Carlos Martin       000000000000          0000020220920 0000000000000000000 
22857250200132174014401409459673230 2022092000000380000S01  080020299283357Sanabria Guillermo rafael     000000000000          0000020220920 0000000000000000000 
22857250200103384014401409409344731 2022092000000760000S01  080020268719017Bogado Manuel Ariel           000000000000          0000020220920 0000000000000000000 
22857250200140444014401409473173291 2022092000000665000S01  080020339002631Osuna Milton Facundo          000000000000          0000020220920 0000000000000000000 
22857250200159394014401409489051840 2022092000000190000S01  080020347434931NAUMTCHUK Nestor Raul         000000000000          0000020220920 0000000000000000000 
22857250200159594014401409488891100 2022092000000380000S01  080020377058373BALMACEDA JUAN SEBASTIAN      000000000000          0000020220920 0000000000000000000 
22857250200144354014401409474875109 2022092000000190000S01  080020325604159Leopoldino Damian Anibal      000000000000          0000020220920 0000000000000000000 
22857250200165374014401409496511162 2022092000000190000S01  080020403370895LEOPOLDINO CRISTIAN ERNESTO   000000000000          0000020220920 0000000000000000000 
22857250200083574014401409409329930 2022092000001783750S01  080020241432271D Achary Luis María Calixto   000000000000          0000020220920 0000000000000000000 
22857250200181204014402109534049455 2022092000001023750S01  080027415094456D'achary Karen Solange        000000000000          0000020220920 0000000000000000000 
22857250200130784014401409459674279 2022092000001623750S01  080020334206719Amarilla cantero Lucas ariel  000000000000          0000020220920 0000000000000000000 
22857250200161834014401409488628852 2022092000001498750S01  080020371580116SAMUDIO JAVIER HERNAN         000000000000          0000020220920 0000000000000000000 
22857250200116764014401409409361451 2022092000000550000S01  080020312628792González Sebastián Omar       000000000000          0000020220920 0000000000000000000 
22857250200089134014401409409325958 2022092000000550000S01  080020225828211Medina Carlos Ariel           000000000000          0000020220920 0000000000000000000 
22857250200158044014401409487606309 2022092000000440000S01  080020343674105Acosta Aguirre Bruno Hector   000000000000          0000020220920 0000000000000000000 
22857250200109034014401409409355838 2022092000001000000S01  080020298544270Gonzalez Gustavo Javier       000000000000          0000020220920 0000000000000000000 
22857250200107294014401409409356327 2022092000000630000S01  080020299284035Mbombaj Raul Edelmiro         000000000000          0000020220920 0000000000000000000 
22857250200100474014401409409345435 2022092000001390000S01  080020270543457Batalla Sergio Daniel         000000000000          0000020220920 0000000000000000000 
22857250200097694014401409409344089 2022092000000630000S01  080020266235543Del Valle Sergio Román        000000000000          0000020220920 0000000000000000000 
22857250200115054014401409411236165 2022092000000100000S01  080020335233213Solis Maximiliano Sebastian   000000000000          0000020220920 0000000000000000000 
22857250200136954014401409471991183 2022092000000100000S01  080020360625436DAVALOS NICOLAS ADRIAN        000000000000          0000020220920 0000000000000000000 
22857250200125894014401409411134357 2022092000000100000S01  080020320425515Fretes Cristian Oscar         000000000000          0000020220920 0000000000000000000 
22857250200134614014401409463861452 2022092000000600000S01  080027297603685Kusñer Patricia Itati Romina  000000000000          0000020220920 0000000000000000000 
22857250200101544014401409541372212 2022092000000200000S01  080020269611368Amarilla Diego Javier Ceferi  000000000000          0000020220920 0000000000000000000 
22857250200136944014401409515931470 2022092000000200000S01  080020364727683Duarte Antonio Arnaldo        000000000000          0000020220920 0000000000000000000 
22857250200141604014401409480502183 2022092000000718750S01  080027307532854Diaz Patricia Elizabeth       000000000000          0000020220920 0000000000000000000 
22857250200078024014401409409327024 2022092000000760000S01  080020230306134Baumgartner Miguel Angel      000000000000          0000020220920 0000000000000000000 
22857250200083804014401409497977204 2022092000000760000S01  080020251804037Martinez Sandro Alberto       000000000000          0000020220920 0000000000000000000 
22857250200125654014401409497977262 2022092000000570000S01  080027307530312Da Cruz Nelida Susana         000000000000          0000020220920 0000000000000000000 
22857250200155754014401409497151024 2022092000000190000S01  080027360974206MARTINEZ ALICIA LILIANA       000000000000          0000020220920 0000000000000000000 
22857250200163904014401409505039108 2022092000000760000S01  080027401517087LEGUIZA FATIMA ELIZABETH      000000000000          0000020220920 0000000000000000000 
22857250200108894014401409409321615 2022092000000190000S01  080020188207554Garay Vera Claudio Ariel      000000000000          0000020220920 0000000000000000000 
22857250200139394014401409488591488 2022092000000190000S01  080020404142969CASTELLANO ENRIQUE ORLANDO    000000000000          0000020220920 0000000000000000000 
22857250200157854014401409489051824 2022092000000190000S01  080020348264436SARASOLA DIEGO JAVIER         000000000000          0000020220920 0000000000000000000 
22857250200109734014401409409352547 2022092000000831250S01  080020289578499Rodriguez Eduardo de Jesús    000000000000          0000020220920 0000000000000000000 
22857250200110484014401409409354365 2022092000000190000S01  080020294558072Lopéz Rolando Gustavo         000000000000          0000020220920 0000000000000000000 
22857250200136174014401409463376653 2022092000000237500S01  080020330764601Valenzuela Gustavo Iván       000000000000          0000020220920 0000000000000000000 
22857250200102414014401409409360829 2022092000001543750S01  080020311102339Oviedo Luis Gonzalo           000000000000          0000020220920 0000000000000000000 
22857250200109754014401409409346676 2022092000000712500S01  080020274561174Rodriguez Gustavo Javier      000000000000          0000020220920 0000000000000000000 
22857250200102144014401409469582786 2022092000000593750S01  080020279972571Kotur Luis Alfredo            000000000000          0000020220920 0000000000000000000 
22857250200117854014401409409358695 2022092000000712500S01  080020305615138Garcia Enso Ernesto           000000000000          0000020220920 0000000000000000000 
22857250200115954014401409405767985 2022092000000427500S01  080020289574701Arzamendia José Fernando      000000000000          0000020220920 0000000000000000000 
22857250200109364014401409409365055 2022092000000380000S01  080020324432923Mendoza Gerardo Daniel        000000000000          0000020220920 0000000000000000000 
22857250200120434014401409409354378 2022092000000641250S01  080020294558692Gonzalez Roberto Matias       000000000000          0000020220920 0000000000000000000 
22857250200139114014401409470032801 2022092000000285000S01  080020357110794BENITEZ MIGUEL ANGEL          000000000000          0000020220920 0000000000000000000 
22857250200136164014401409463376640 2022092000002090000S01  080020323292435Unfrid José Ariel             000000000000          0000020220920 0000000000000000000 
22857250200112954014401409409358363 2022092000001330000S01  080020305244474Vera Orlando Javier           000000000000          0000020220920 0000000000000000000 
22857250200118064014401409409358493 2022092000003420000S01  080020305248720Penayo Walter Adrián          000000000000          0000020220920 0000000000000000000 
22857250200090854014401409409325857 2022092000002470000S01  080023225201889Gonzalez Héctor Fabian        000000000000          0000020220920 0000000000000000000 
22857250200125944014401409411134403 2022092000002090000S01  080020317591811Gauto Javier Orlando          000000000000          0000020220920 0000000000000000000 
22857250200118904014401409468650325 2022092000000760000S01  080020321798501PENAYO BRUNO JAVIER           000000000000          0000020220920 0000000000000000000 
22857250200117224014401409409367990 2022092000002660000S01  080020337318631Recalde Dante Ivan            000000000000          0000020220920 0000000000000000000 
22857250200184204014401409519046178 2022092000001520000S01  080020364122692FERREYRA MARQUEZ ROBERTO DAN  000000000000          0000020220920 0000000000000000000 
22857250200103124014401409409355203 2022092000001330000S01  080024296716762Pintos Ramon Orlando          000000000000          0000020220920 0000000000000000000 
22857250200101724014401409465678339 2022092000007980000S01  080020306191889Broemser Emilio Federico      000000000000          0000020220920 0000000000000000000 
22857250200140854014401409479132135 2022092000000570000S01  080020350382462Silvero Luciano Ramon         000000000000          0000020220920 0000000000000000000 
22857250200146194014401409487729369 2022092000003420000S01  080020387780212OCAMPO DAVID ALEJANDRO        000000000000          0000020220920 0000000000000000000 
22857250200107904014401409409331861 2022092000001425000S01  080020246797006Romero Marcelo Ariel          000000000000          0000020220920 0000000000000000000 
22857250200092334014401409409342939 2022092000001425000S01  080020262862861Garcia Mario Julian           000000000000          0000020220920 0000000000000000000 
22857250200164834014401409500720809 2022092000001140000S01  080020392295055RODRIGUEZ MATIAS NICOLAS      000000000000          0000020220920 0000000000000000000 
22857250200165034014401409535628459 2022092000000285000S01  080027401517567Silvero Ihara Elizabeth       000000000000          0000020220920 0000000000000000000 
22857250200151474014401409539994112 2022092000000570000S01  080027201187457Gonzalez Griselda Elizabetth  000000000000          0000020220920 0000000000000000000 
22857250200145884014401409487549853 2022092000001995000S01  080023375917939GONZALEZ FERNANDO JAVIER      000000000000          0000020220920 0000000000000000000 
22857250200177914014401409533257484 2022092000001995000S01  080027375815538Silva Melina Soledad          000000000000          0000020220920 0000000000000000000 
22857250200115014014401409487812771 2022092000001140000S01  080020325288419SEGOVIA ADRIAN DIONISIO       000000000000          0000020220920 0000000000000000000 
22857250200146394014401409498963006 2022092000000570000S01  080027375904387ROTELA MELISA TAMARA          000000000000          0000020220920 0000000000000000000 
22857250200146094014401409492030496 2022092000001425000S01  080023381971074MARQUEZ NATALIA ISABEL        000000000000          0000020220920 0000000000000000000 
22857250200145444014401409490649814 2022092000001425000S01  080020364576596CASTILLO ERIK ANDRES          000000000000          0000020220920 0000000000000000000 
22857250200113664014401409483730778 2022092000000570000S01  080020279984049Machado Javier Horacio        000000000000          0000020220920 0000000000000000000 
22857250200180014014401409520170363 2022092000002565000S01  080020409839585MIÑO HECTOR ADRIAN            000000000000          0000020220920 0000000000000000000 
22857250200119634014401409409348306 2022092000001140000S01  080020278883796Barrios Jorge Horacio         000000000000          0000020220920 0000000000000000000 
22857250200187774014402909532163957 2022092000001425000S01  080027422196825Leiva Jaquelin Victoria       000000000000          0000020220920 0000000000000000000 
22857250200152364014401409493918131 2022092000001710000S01  080020382653077BALBUENA DAMACIO ALEJANDRO    000000000000          0000020220920 0000000000000000000 
22857250200145434014401409488591316 2022092000002280000S01  080020375901995Cardozo Mario Gustavo         000000000000          0000020220920 0000000000000000000 
22857250200162504014401409506254212 2022092000000855000S01  080020374611098AQUINO LUCAS HERNAN           000000000000          0000020220920 0000000000000000000 
22857250200130474014401409499765946 2022092000000285000S01  080027348956820ROJAS MARIELA GISELA          000000000000          0000020220920 0000000000000000000 
22857250200134894014401409497977305 2022092000000285000S01  080020313618820Mereles Gabriel Anibal        000000000000          0000020220920 0000000000000000000 
22857250200162864014401409530527249 2022092000000570000S01  080027380819789Cabrera Janina Soledad        000000000000          0000020220920 0000000000000000000 
22857250200133734014401409463373968 2022092000000285000S01  080020338660775Esteche Derlis Ruben          000000000000          0000020220920 0000000000000000000 
22857250200138994014401409470281137 2022092000001995000S01  080020316295313ARAPCHUK LUIS GABRIEL         000000000000          0000020220920 0000000000000000000 
22857250200109954014401409538955444 2022092000001995000S01  080023313619869Vazquez Ricardo Daniel        000000000000          0000020220920 0000000000000000000 
22857250200121284014401409409367916 2022092000001710000S01  080020337270140Robles Sergio Sebastian       000000000000          0000020220920 0000000000000000000 
22857250200104924014401409409357311 2022092000001710000S01  080020302160911Amaro Ramón del Rosario       000000000000          0000020220920 0000000000000000000 
22857250200145794014401409503108727 2022092000001140000S01  080027371566118GAMBOA VERONICA MICAELA       000000000000          0000020220920 0000000000000000000 
22857250200083124014401409476365439 2022092000002280000S01  080020208150058Rivero Angel Antonio          000000000000          0000020220920 0000000000000000000 
22857250200185644014405409531619567 2022092000002280000S01  080020415020636AMARILLA MATIAS RAFAEL        000000000000          0000020220920 0000000000000000000 
22857250200093304014401409409328106 2022092000002280000S01  080020234448049Cardozo Roberto Anibal        000000000000          0000020220920 0000000000000000000 
22857250200139474014401409477183799 2022092000001140000S01  080020347338754CORVO ANDRES                  000000000000          0000020220920 0000000000000000000 
22857250200082544014401409409325248 2022092000002565000S01  080020222731713Espinoza José Alfredo         000000000000          0000020220920 0000000000000000000 
22857250200089174014401409409327819 2022092000002850000S01  080020233835545Meza Juan Carlos              000000000000          0000020220920 0000000000000000000 
22857250200083884014401409499184053 2022092000002850000S01  080023247389849Segovia Norberto Osmar        000000000000          0000020220920 0000000000000000000 
22857250200090134014401409409343718 2022092000001710000S01  080020265209875Martinez Ramón Alfredo        000000000000          0000020220920 0000000000000000000 
22857250200100104014401409409353645 2022092000000760000S01  080020292417250Ríos Sebastian Alfredo        000000000000          0000020220920 0000000000000000000 
22857250200094524014401409409332376 2022092000000300000S01  080020248196387Ruiz Diaz Orlando Ramón       000000000000          0000020220920 0000000000000000000 
22857250200117964014401409409365521 2022092000000770000S01  080020326088340Kobez Matías Emanuel          000000000000          0000020220920 0000000000000000000 
22857250200193684014405409541372717 2022092000000220000S01  080020436195592OBREGON MATIAS AGUSTIN        000000000000          0000020220920 0000000000000000000 
22857250200077684014401409409323606 2022092000005462117S01  080020213029755Chagas Elias Arcangel         000000000000          0000020220920 0000000000000000000 
22857250200077614014401009531812737 2022092000005462117S01  080020217709777Baez Eulalio Alberto Ramón    000000000000          0000020220920 0000000000000000000 
22857250200083904014401409409326450 2022092000005462117S01  080020228142698Sommariva Jorge Anibal        000000000000          0000020220920 0000000000000000000 
22857250200096824014401409474618894 2022092000005462116S01  080023266235089Amarilla Ramón Antonio        000000000000          0000020220920 0000000000000000000 
22857250200117934014401409464376087 2022092000000440000S01  080020298207703Hermosi José Sebastián        000000000000          0000020220920 0000000000000000000 
22857250200160794014401409487605722 2022092000000220000S01  080020341122482Herrera Jorge Oscar           000000000000          0000020220920 0000000000000000000 
22857250200159344014401409487813000 2022092000000220000S01  080027371579805LEMES JOSEFINA OMARA          000000000000          0000020220920 0000000000000000000 
22857250200117174014401409409366485 2022092000000192500S01  080020330129566Pérez Mauro Roberto           000000000000          0000020220920 0000000000000000000 
22857250200127654014401409478764205 2022092000000192500S01  080027303820448Britos Natalia Alejandra      000000000000          0000020220920 0000000000000000000 
22857250200113224014401409409354929 2022092000000285000S01  080020296330109Billalba Diego Javier         000000000000          0000020220920 0000000000000000000 
22857250200155474014401409482214293 2022092000000285000S01  080020330763524Gonzalez Silvio Cesar         000000000000          0000020220920 0000000000000000000 
22857250200116244014401409409354798 2022092000000285000S01  080023295969199Barreto Ricardo Javier        000000000000          0000020220920 0000000000000000000 
22857250200156994014401409487549941 2022092000000285000S01  080020315014086CASTILLO LUIS GUSTAVO         000000000000          0000020220920 0000000000000000000 
22857250200113354014401409409353007 2022092000000950000S01  080020290452350Da Rocha Leonardo Ivan        000000000000          0000020220920 0000000000000000000 
22857250200091084014401409409346230 2022092000000285000S01  080020272992151Morinigo Gustavo Javier       000000000000          0000020220920 0000000000000000000 
22857250200110464014401409479747863 2022092000000285000S01  080020313618006Leguizamon Walter Elias       000000000000          0000020220920 0000000000000000000 
22857250200155324014401409480502457 2022092000000570000S01  080020347335534Galeano Alberto Martin        000000000000          0000020220920 0000000000000000000 
22857250200078844014401409409328148 2022092000002375000S01  080020234560965Lopez Ezequiel Salomon        000000000000          0000020220920 0000000000000000000 
22857250200083524014401409544804309 2022092000001615000S01  080020241431542Caballero Victor Hugo         000000000000          0000020220920 0000000000000000000 
22857250200191454014402109539397812 2022092000000285000S01  080020419005356CERDAN JONATHAN MATIAS        000000000000          0000020220920 0000000000000000000 
22857250200170104014401409519624523 2022092000001140000S01  080023343674589SZYCAK HORACIO ALEJANDRO      000000000000          0000020220920 0000000000000000000 
22857250200154094014401409496511104 2022092000001140000S01  080020371587218VARGAS JOSE NATANAEL          000000000000          0000020220920 0000000000000000000 
22857250200154054014401409496511087 2022092000000285000S01  080020381980694STUMPF Alejandro Daniel       000000000000          0000020220920 0000000000000000000 
22857250200124674014401409462399462 2022092000001140000S01  080020331273326López Walter Isaías           000000000000          0000020220920 0000000000000000000 
22857250200138014014401409479479650 2022092000001140000S01  080027364100928Britez Griselda Andrea        000000000000          0000020220920 0000000000000000000 
22857250200083624014401409409326492 2022092000000285000S01  080023228144789Fernandez Adolfo Cesar        000000000000          0000020220920 0000000000000000000 
22857250200110634014401409463598693 2022092000000285000S01  080027327942641Pereyra Lago Maria Victoria   000000000000          0000020220920 0000000000000000000 
22857250200086584014401409481868671 2022092000000285000S01  080020244867880Sosa Jorge Oscar              000000000000          0000020220920 0000000000000000000 
22857250200149514014401409477332780 2022092000000285000S01  080027403354967Caceres Debora Grisel         000000000000          0000020220920 0000000000000000000 
22857250200187144014405409532163986 2022092000000285000S01  080027409197200Franco Rita Ailén             000000000000          0000020220920 0000000000000000000 
22857250200188774014405409538823815 2022092000000570000S01  080027390467678PORTO KAREN GRETTEL           000000000000          0000020220920 0000000000000000000 
22857250200180854014400109541736421 2022092000000285000S01  080020367832690BAEZ SERGIO OSCAR             000000000000          0000020220920 0000000000000000000 
22857250200136924014401409476147556 2022092000000855000S01  080027360626623Davalos Adriana Liduvina      000000000000          0000020220920 0000000000000000000 
22857250200104364014401409409349550 2022092000000285000S01  080020281465288Encina Carlos Roberto         000000000000          0000020220920 0000000000000000000 
22857250200137494014401409473746059 2022092000000855000S01  080027343321185Ramirez Natalia Soledad       000000000000          0000020220920 0000000000000000000 
22857250200148094014401409489625562 2022092000000855000S01  080020343660260PALMA Pedro Pablo             000000000000          0000020220920 0000000000000000000 
22857250200174114014401409516681376 2022092000000285000S01  080027311102260CORREA FLAVIA ANALIA          000000000000          0000020220920 0000000000000000000 
22857250200088914014401409477811676 2022092000000285000S01  080020243893713Javier Luis Armando           000000000000          0000020220920 0000000000000000000 
22857250200111324014401409409363240 2022092000000285000S01  080020318766852Cordobes Alfredo Javier       000000000000          0000020220920 0000000000000000000 
22857250200099364014401409409359067 2022092000000855000S01  080027306197075Baez Luzmila Stefani          000000000000          0000020220920 0000000000000000000 
22857250200112514014401409469740186 2022092000000855000S01  080027288899660Quintana Laura Carolina       000000000000          0000020220920 0000000000000000000 
22857250200106564014401409477332504 2022092000000855000S01  080020305850013Drewanz Raimundo              000000000000          0000020220920 0000000000000000000 
22857250200094434014401409469040954 2022092000000285000S01  080020229961781Rodriguez Diego Gilberto      000000000000          0000020220920 0000000000000000000 
22857250200184644014401409538761058 2022092000000285000S01  080027411920777ESCALANTE ORIANA BELEN        000000000000          0000020220920 0000000000000000000 
22857250200184134014401409537626011 2022092000000285000S01  080027412736899Betancourt Luciana Antonella  000000000000          0000020220920 0000000000000000000 
22857250200152924014401409544804178 2022092000000285000S01  080020392268686FERNANDEZ RAFAEL              000000000000          0000020220920 0000000000000000000 
22857250200172764014401409519624549 2022092000000285000S01  080020282037514ROJAS RUBEN DARIO             000000000000          0000020220920 0000000000000000000 
22857250200114084014401409409359911 2022092000000285000S01  080020307934400Valenzuela Gustavo Fabián     000000000000          0000020220920 0000000000000000000 
22857250200163244014401409501535097 2022092000000475000S01  080020396399564DO SANTOS LUCAS               000000000000          0000020220920 0000000000000000000 
22857250200115494014401409409367512 2022092000000475000S01  080020334870929Godoy David Abel              000000000000          0000020220920 0000000000000000000 
22857250200112254014401409409335117 2022092000000237500S01  080020261293464Mereles Oscar Elias           000000000000          0000020220920 0000000000000000000 
22857250200123364014401409410658214 2022092000000475000S01  080020337211047Ratoski Ricardo Fabian        000000000000          0000020220920 0000000000000000000 
22857250200109894014401409409363602 2022092000000237500S01  080020320077789Sosa Guillermo Fabian         000000000000          0000020220920 0000000000000000000 
22857250200107084014401409409350673 2022092000000475000S01  080020284771002Krul Elias Javier             000000000000          0000020220920 0000000000000000000 
22857250200119824014401409476227001 2022092000000237500S01  080020326083144Cabaña Fabián Alejandro       000000000000          0000020220920 0000000000000000000 
22857250200118094014401409409366195 2022092000000475000S01  080020329150993Rios Armando Marcelo          000000000000          0000020220920 0000000000000000000 
22857250200108584014401409409352909 2022092000000237500S01  080020290103178Cubilla Walter Ariel          000000000000          0000020220920 0000000000000000000 
22857250200132784014401409463375210 2022092000000475000S01  080020311118919Arce Ramón Javier             000000000000          0000020220920 0000000000000000000 
22857250200144784014401409472125954 2022092000000475000S01  080020307903467Satorra Alberto Aldo          000000000000          0000020220920 0000000000000000000 
22857250200104674014401409409363628 2022092000000475000S01  080020320356157Rivero Diego Luis             000000000000          0000020220920 0000000000000000000 
22857250200183504014401409521421437 2022092000000285000S01  080020375904897FLEITAS OMAR ALEJANDRO        000000000000          0000020220920 0000000000000000000 
22857250200183374014401409533257383 2022092000000285000S01  080020392233726Dominguez Alexis Gabriel      000000000000          0000020220920 0000000000000000000 
22857250200183344014401409521421701 2022092000000285000S01  080020369237226DAVALOS MAXIMILIANO EMANUEL   000000000000          0000020220920 0000000000000000000 
22857250200169914014401409521810752 2022092000000285000S01  080020400423033SENA LUCAS NICOLAS            000000000000          0000020220920 0000000000000000000 
22857250200180004014402909523593312 2022092000000285000S01  080020383828784MENDRANA CRISTIAN FERNANDO    000000000000          0000020220920 0000000000000000000 
22857250200169964014401409521421714 2022092000000285000S01  080020376236790SILVA DANIEL ALBERTO          000000000000          0000020220920 0000000000000000000 
22857250200153954014401409495770744 2022092000000285000S01  080020385663162SILVERO Augusto               000000000000          0000020220920 0000000000000000000 
22857250200155174014401409480085790 2022092000000285000S01  080020360974120Fernandez Lucas Daniel        000000000000          0000020220920 0000000000000000000 
22857250200117234014401409409354727 2022092000000285000S01  080020295967707Redes Eduardo Fabricio        000000000000          0000020220920 0000000000000000000 
22857250200161704014401409492030630 2022092000000570000S01  080020373249441RODRIGUEZ NICOLAS UBALDO      000000000000          0000020220920 0000000000000000000 
22857250200167324014401409519046022 2022092000001140000S01  080020385665416BENITEZ Rodrigo Nicolas       000000000000          0000020220920 0000000000000000000 
22857250200134154014401409463373694 2022092000000285000S01  080020341618569Godoy Diego Armando           000000000000          0000020220920 0000000000000000000 
22857250200154754014401409485378884 2022092000000285000S01  080020364090162Coito David Ruben             000000000000          0000020220920 0000000000000000000 
22857250200139224014401409470281140 2022092000000285000S01  080020349710804CABALLERO ELIAS NICOLAS       000000000000          0000020220920 0000000000000000000 
22857250200186904014402909537156635 2022092000000570000S01  080023424054399Fares Mario Leonardo          000000000000          0000020220920 0000000000000000000 
22857250200169514014401409517803102 2022092000000477500S01  080027400436954RAMIREZ CARLA ANTONELA        000000000000          0000020220920 0000000000000000000 
22857250200192364014403709541372531 2022092000000285000S01  080027435284839GALLARDO KATERIN NATALIA      000000000000          0000020220920 0000000000000000000 
22857250200194724014400109538760947 2022092000000570000S01  080020400423815SANCHEZ LEONARDO RAMON        000000000000          0000020220920 0000000000000000000 
22857250200097194014401409409329204 2022092000000570000S01  080023239511139Perez Roque Adrian            000000000000          0000020220920 0000000000000000000 
22857250200183534014401409521421583 2022092000000285000S01  080020416319872GARCIA ANDRES GABRIEL         000000000000          0000020220920 0000000000000000000 
22857250200193904014405409539397795 2022092000000285000S01  080027433311006Peralta Vilma Haydé           000000000000          0000020220920 0000000000000000000 
22857250200138654014401409487607289 2022092000000570000S01  080023350055169Sanabria José Emanuel         000000000000          0000020220920 0000000000000000000 
22857250200129884014401409473151114 2022092000000570000S01  080020344513709Da Rosa Rodrigo Rafael        000000000000          0000020220920 0000000000000000000 
22857250200111774014401409483521246 2022092000000285000S01  080027295964117Gomez Mirta Ester             000000000000          0000020220920 0000000000000000000 
22857250200102714014401409409360180 2022092000000285000S01  080020309351402Villalba Gustavo Eduardo      000000000000          0000020220920 0000000000000000000 
22857250200152404014401409497977392 2022092000001140000S01  080020383817782BAUTISTA Alejandro            000000000000          0000020220920 0000000000000000000 
22857250200161444014401409503477793 2022092000000285000S01  080020337369716OSORIO ANDRES MAXIMILIANO     000000000000          0000020220920 0000000000000000000 
22857250200109334014401409409362399 2022092000000285000S01  080020315728488Mazo Luiz Anibal              000000000000          0000020220920 0000000000000000000 
22857250200148594014401409476469238 2022092000000285000S01  080027311106975VERON CRISTINA NOEMI          000000000000          0000020220920 0000000000000000000 
22857250200097104014401409409351322 2022092000001045000S01  080020286132198López Jorge Adrian            000000000000          0000020220920 0000000000000000000 
22857250200153354014401409504770228 2022092000000285000S01  080027361144754LOPEZ MAROLINA DOLORES        000000000000          0000020220920 0000000000000000000 
22857250200117414014401409476365497 2022092000000285000S01  080020317926325Smozeñuk Sergio Omar          000000000000          0000020220920 0000000000000000000 
22857250200110084014401409409357180 2022092000000285000S01  080020302154997Zelaya Paolo Sebastian        000000000000          0000020220920 0000000000000000000 
22857250200150754014401409480085716 2022092000000285000S01  080020353009940Puchot Alfredo Ezequiel       000000000000          0000020220920 0000000000000000000 
22857250200107374014401409409352794 2022092000000285000S01  080020290035482Mordez Mauro Rolando          000000000000          0000020220920 0000000000000000000 
22857250200160754014401409488591260 2022092000000285000S01  080020344513849Gonzalez Ricardo Nicolas      000000000000          0000020220920 0000000000000000000 
22857250200144604014401409473100154 2022092000000285000S01  080020348972104Ortigoza Enrique Fabian       000000000000          0000020220920 0000000000000000000 
22857250200148034014401409476469010 2022092000000570000S01  080020310974901OJEDA ARNALDO JAVIER          000000000000          0000020220920 0000000000000000000 
22857250200177624014401409539032133 2022092000000285000S01  080020401980378RESQUIN MARCELINO ALEJANDRO   000000000000          0000020220920 0000000000000000000 
22857250200180174014402109519046123 2022092000000285000S01  080020392219685PEÑA RUBEN ALBERTO            000000000000          0000020220920 0000000000000000000 
22857250200175524014401409500720968 2022092000000285000S01  080020402000768SOSA JONATHAN RAMON           000000000000          0000020220920 0000000000000000000 
22857250200183884014401409535628491 2022092000000285000S01  080020387757482Pereira Enzo Ariel            000000000000          0000020220920 0000000000000000000 
22857250200183144014401409531619411 2022092000000285000S01  080020403381447ACOSTA EMILIANO EXEQUIEL      000000000000          0000020220920 0000000000000000000 
22857250200112124014401409483730765 2022092000000285000S01  080020303813889Marchiotti Jose Roberto       000000000000          0000020220920 0000000000000000000 
22857250200114724014401409506760221 2022092000000285000S01  080020327354176Lopez Matías German           000000000000          0000020220920 0000000000000000000 
22857250200138984014401409504770172 2022092000000285000S01  080024344507151AQUINO LUCAS RAMON            000000000000          0000020220920 0000000000000000000 
22857250200144164014401409473532782 2022092000000285000S01  080020343625341Garcete Leonardo David        000000000000          0000020220920 0000000000000000000 
22857250200163184014401409541736551 2022092000000285000S01  080023392280839DEOLIVERA MARIANO NICOLAS     000000000000          0000020220920 0000000000000000000 
22857250200177744014401409538823727 2022092000000237500S01  080020364122439ROMERO LUCAS FRANCISCO        000000000000          0000020220920 0000000000000000000 
22857250200121144014401409409360584 2022092000000237500S01  080020309637977Piriz Cristian Leonardo       000000000000          0000020220920 0000000000000000000 
22857250200107644014401409409331904 2022092000000237500S01  080020246799564Ramirez Sergio Raul           000000000000          0000020220920 0000000000000000000 
22857250200155564014401409495770760 2022092000000237500S01  080023371579109Leon Gerardo Hernan           000000000000          0000020220920 0000000000000000000 
22857250200183984014401409539234465 2022092000000712500S01  080020409263888ROMERO LEONEL MAXIMILIANO     000000000000          0000020220920 0000000000000000000 
22857250200146084014401409499422490 2022092000000237500S01  080020343670053MARINONI ALBERTO FABIAN       000000000000          0000020220920 0000000000000000000 
22857250200163214014401409503108684 2022092000000237500S01  080020364609907DORETTO OMAR EMMANUEL         000000000000          0000020220920 0000000000000000000 
22857250200187314014405409538823844 2022092000000237500S01  080020407077246Godoy Gustavo Sebastian       000000000000          0000020220920 0000000000000000000 
22857250200108544014401409409352228 2022092000000237500S01  080023288899649Contreras Carlos Alejandro    000000000000          0000020220920 0000000000000000000 
22857250200122014014401409409349374 2022092000000237500S01  080023280843199Betancur Sergio Gustavo       000000000000          0000020220920 0000000000000000000 
22857250200106294014401409409354860 2022092000000237500S01  080020296328090Bustos Jorge Martin           000000000000          0000020220920 0000000000000000000 
22857250200192254014400109539234393 2022092000000285000S01  080020403363325FIGUEROA PABLO ANTONIO        000000000000          0000020220920 0000000000000000000 
22857250200191564014402109541372225 2022092000000570000S01  080027428108340CORDOBA NATALIA EDITH         000000000000          0000020220920 0000000000000000000 
22857250200194674014402909538122598 2022092000000285000S01  080023424052779Sakauski Joel Adrián          000000000000          0000020220920 0000000000000000000 
22857250200092524014401409409347501 2022092000000285000S01  080020275681920Mancuello Claudio Daniel      000000000000          0000020220920 0000000000000000000 
22857250200099304014401409468650556 2022092000000285000S01  080027278000589Almada Cristina Lorena        000000000000          0000020220920 0000000000000000000 
22857250200164714014401409500720711 2022092000000285000S01  080027367831818QUIROGA DANIELA ANIKA         000000000000          0000020220920 0000000000000000000 
22857250200163224014402909538494709 2022092000000570000S01  080020401939483DO SANTOS CARLOS EMANUEL      000000000000          0000020220920 0000000000000000000 
22857250200117054014401409506760234 2022092000000285000S01  080020265732608Nacimiento Ricardo Alberto    000000000000          0000020220920 0000000000000000000 
22857250200162724014401409537920975 2022092000000285000S01  080020395294343Benítez Juan Ignacio          000000000000          0000020220920 0000000000000000000 
22857250200099384014401409409353818 2022092000000285000S01  080020293252484Barboza Carlos Alberto        000000000000          0000020220920 0000000000000000000 
22857250200167544014401409541736434 2022092000000285000S01  080024350099588CASTILLO BELEN ANA PAULA      000000000000          0000020220920 0000000000000000000 
22857250200096994014403700082846417 2022092000000570000S01  080020299793630Espindola Mario Luciano       000000000000          0000020220920 0000000000000000000 
22857250200147174014401409476687599 2022092000000285000S01  080020361031416CASTRO SERGIO DARIO           000000000000          0000020220920 0000000000000000000 
22857250200160184014401409500719890 2022092000000285000S01  080023364509774DE MORAEZ LAURA YISELA        000000000000          0000020220920 0000000000000000000 
22857250200110984014401409409366339 2022092000000285000S01  080020330121344Alvarenga Ricardo Fabián      000000000000          0000020220920 0000000000000000000 
22857250200159814014401409492030601 2022092000000570000S01  080023343625529Boutron Orlando Saul          000000000000          0000020220920 0000000000000000000 
22857250200174654014401409502712747 2022092000000855000S01  080020308840116KALINOSKI EMILIANO MANUEL     000000000000          0000020220920 0000000000000000000 
22857250200171534014401409502712688 2022092000000855000S01  080020350059025FLEITAS WALTER EDUARDO        000000000000          0000020220920 0000000000000000000 
22857250200133664014401409463373913 2022092000000285000S01  080020340185006Espindola Eduardo Gabriel     000000000000          0000020220920 0000000000000000000 
22857250200158824014401409487605618 2022092000000285000S01  080023330746254Irala Liliana Mabel           000000000000          0000020220920 0000000000000000000 
22857250200108524014401409409354668 2022092000000285000S01  080020295965666Claro Carlos Ramón            000000000000          0000020220920 0000000000000000000 
22857250200119114014401409481280444 2022092000000285000S01  080020322980605Aguirre Jorge Matias          000000000000          0000020220920 0000000000000000000 
22857250200156484014401409496238001 2022092000000285000S01  080023354567253VALDEZ Alejandra              000000000000          0000020220920 0000000000000000000 
22857250200150994014401409477875535 2022092000000285000S01  080027353273707Silva Emilia Beatriz          000000000000          0000020220920 0000000000000000000 
22857250200118734014401409476687515 2022092000000855000S01  080024334077647López Laura Carolina          000000000000          0000020220920 0000000000000000000 
22857250200113854014401409409354176 2022092000000285000S01  080020294417266Posdeley Rubén Dario          000000000000          0000020220920 0000000000000000000 
22857250200100774014401409516749946 2022092000000285000S01  080020280849201Miño Horacio Javier           000000000000          0000020220920 0000000000000000000 
22857250200093284014401409409334673 2022092000000285000S01  080020259851093Cantero Walter Guillermo      000000000000          0000020220920 0000000000000000000 
22857250200094494014401409409326391 2022092000000285000S01  080020227688409Rotela Juan Carlos            000000000000          0000020220920 0000000000000000000 
22857250200178134014401409537921028 2022092000000285000S01  080020411784208Vargas Fernando Agustín       000000000000          0000020220920 0000000000000000000 
22857250200099614014401409465678241 2022092000000285000S01  080023280722219Farinola Dario René           000000000000          0000020220920 0000000000000000000 
22857250200153614014401409500720593 2022092000000285000S01  080023392199934PATIÑO ANA CLARA              000000000000          0000020220920 0000000000000000000 
22857250200145964014401409496237958 2022092000000285000S01  080020404137418JACQUES Luciano Omar          000000000000          0000020220920 0000000000000000000 
22857250200181354014405409535628619 2022092000000285000S01  080027364720446Del Roio Fabiana              000000000000          0000020220920 0000000000000000000 
22857250200088524014401409409330095 2022092000000285000S01  080020241955428De Olivera Sergio Lizandro    000000000000          0000020220920 0000000000000000000 
22857250200104084014401409477585971 2022092000000285000S01  080020289573306Rusnok Juan José              000000000000          0000020220920 0000000000000000000 
22857250200154274014401409491039818 2022092000000285000S01  080027292129519AGUILERA Hortensia Raquel     000000000000          0000020220920 0000000000000000000 
22857250200141954014401409504185224 2022092000000285000S01  080023357110564Gonzalez Natalia Noemí        000000000000          0000020220920 0000000000000000000 
22857250200150054014401409505039007 2022092000000285000S01  080023377057554GIMENEZ FLORENCIA LILIANA     000000000000          0000020220920 0000000000000000000 
22857250200169684014401409517132156 2022092000000285000S01  080020403425703RODRIGUEZ VICTOR MAXIMILIANO  000000000000          0000020220920 0000000000000000000 
22857250200105884014401409409351423 2022092000000308750S01  080023286756999Acosta Silva Cristian Javier  000000000000          0000020220920 0000000000000000000 
22857250200177994014401409529556906 2022092000000237500S01  080023408982189Sosa Gabriel Hernán           000000000000          0000020220920 0000000000000000000 
22857250200117714014401409409360210 2022092000000237500S01  080020309352719Castillo Rolando Fabián       000000000000          0000020220920 0000000000000000000 
22857250200106084014401409409348364 2022092000000237500S01  080020279199600Aranda José Alejandro         000000000000          0000020220920 0000000000000000000 
22857250200113764014401409409367466 2022092000000237500S01  080020334864988Ñambi Marcelo Alejandro       000000000000          0000020220920 0000000000000000000 
22857250200096094014401409409344799 2022092000000237500S01  080020268765647Valenzuela Ricardo Francisco  000000000000          0000020220920 0000000000000000000 
22857250200120904014401409409357395 2022092000000237500S01  080020302554006Nacimiento Edgardo José       000000000000          0000020220920 0000000000000000000 
22857250200178214014401409534049497 2022092000000237500S01  080020392239910Viera Alberto Martín          000000000000          0000020220920 0000000000000000000 
22857250200140064014401409469468888 2022092000000237500S01  080020329149375Leiva Luis Miguel             000000000000          0000020220920 0000000000000000000 
22857250200139024014401409470602684 2022092000000285000S01  080020326477614AYALA CARLOS RAFAEL           000000000000          0000020220920 0000000000000000000 
22857250200167004014401409516749803 2022092000000285000S01  080020354874343ACOSTA CARLOS DANIEL          000000000000          0000020220920 0000000000000000000 
22857250200171704014401409496238115 2022092000000285000S01  080020330675080GIMENEZ JORGE MATIAS          000000000000          0000020220920 0000000000000000000 
22857250200171594014401409495326329 2022092000000285000S01  080020371567314GALEANO ALEXIS JUAN GABRIEL   000000000000          0000020220920 0000000000000000000 
22857250200135414014401409463376510 2022092000000285000S01  080020332175603Peralta Luis Alberto          000000000000          0000020220920 0000000000000000000 
22857250200172364014401409531441982 2022092000000285000S01  080020347426157Noguera Diego Orlando         000000000000          0000020220920 0000000000000000000 
22857250200128014014401409458298764 2022092000000285000S01  080020313614884Duarte Juan Ramón             000000000000          0000020220920 0000000000000000000 
22857250200122154014401409409352475 2022092000000285000S01  080020289575783Neris Marcelo Fabián          000000000000          0000020220920 0000000000000000000 
22857250200169994014401409506760410 2022092000000285000S01  080027408979604SILVERO MARIA YAMILA GUADALU  000000000000          0000020220920 0000000000000000000 
22857250200185864014403709538215320 2022092000000285000S01  080027455555545Baez Zulema Itatí             000000000000          0000020220920 0000000000000000000 
22857250200180644014400109505269127 2022092000000570000S01  080020415085711VERA FACUNDO GABRIEL          000000000000          0000020220920 0000000000000000000 
22857250200103144014401409409346621 2022092000000285000S01  080020274550466Roa Hernán Gastón Alexi       000000000000          0000020220920 0000000000000000000 
22857250200104754014401409409364494 2022092000000285000S01  080020322977426Segovia Héctor Daniel         000000000000          0000020220920 0000000000000000000 
22857250200168634014401409537156710 2022092000000285000S01  080020372209101Gusmán Juan Roberto           000000000000          0000020220920 0000000000000000000 
22857250200115004014401409411236149 2022092000000285000S01  080023305599794Sanchez Analia Luciana        000000000000          0000020220920 0000000000000000000 
22857250200149004014401409478278946 2022092000000285000S01  080020337214542Alvez Diego Fabian            000000000000          0000020220920 0000000000000000000 
22857250200179994014402909528832403 2022092000000285000S01  080020397240941Mendez Exequiel Maximiliano   000000000000          0000020220920 0000000000000000000 
22857250200183304014401409537253783 2022092000000285000S01  080020413027552Cuba Javier Ramón             000000000000          0000020220920 0000000000000000000 
22857250200152424014401409515931500 2022092000000285000S01  080020373251780BENITEZ EVER NICOLAS          000000000000          0000020220920 0000000000000000000 
22857250200162804014401409500719728 2022092000000285000S01  080020400438944BORDON LEONARDO NICOLAS       000000000000          0000020220920 0000000000000000000 
22857250200113554014401409409362041 2022092000000285000S01  080020314713983Harthmann Ramón Antonio       000000000000          0000020220920 0000000000000000000 
22857250200151254014401409478586517 2022092000000285000S01  080020350055410Villanueva Guido Nicolas      000000000000          0000020220920 0000000000000000000 
22857250200174934014401409516681392 2022092000000285000S01  080023350047174MEDINA AMARAL SRA ELIZABETH   000000000000          0000020220920 0000000000000000000 
22857250200164334014401409498963279 2022092000000285000S01  080027399466046MOREL YILSEN TAMARA           000000000000          0000020220920 0000000000000000000 
22857250200163734014401409504770329 2022092000000285000S01  080020364083395Irala Leandro Fabian          000000000000          0000020220920 0000000000000000000 
22857250200188314014402909531442123 2022092000000570000S01  080027403363931Montenegro Rocío Belén        000000000000          0000020220920 0000000000000000000 
22857250200092914014401409409344920 2022092000000285000S01  080020269577712Acuña Juan Argentino          000000000000          0000020220920 0000000000000000000 
22857250200189634014402909539032120 2022092000000285000S01  080027397053534TECCO MARINELA ELIZABETH      000000000000          0000020220920 0000000000000000000 
22857250200122034014401409409348595 2022092000000285000S01  080023279793994Centurión Sonia Noemi         000000000000          0000020220920 0000000000000000000 
22857250200167044014401409521421495 2022092000000285000S01  080027375908420ALARCON ORIANA VALERIA        000000000000          0000020220920 0000000000000000000 
22857250200189964014402109541372368 2022092000000285000S01  080023402326344ZALAZAR BRENDA MARIANA        000000000000          0000020220920 0000000000000000000 
22857250200111344014401409409351045 2022092000000285000S01  080027285898361Chacón Graciela Silvina       000000000000          0000020220920 0000000000000000000 
22857250200113674014401409476147442 2022092000000285000S01  080020299281699Mambrin Pablo Andres          000000000000          0000020220920 0000000000000000000 
22857250200185514014405409533257253 2022092000000285000S01  080027434214004Altamirano Celene Estefanía   000000000000          0000020220920 0000000000000000000 
22857250200189204014401409536877409 2022092000000285000S01  080023423819359Romero Leandro Denis          000000000000          0000020220920 0000000000000000000 
22857250200104334014401409409352000 2022092000000285000S01  080020288713988Cardozo Carlos Orlando Moham  000000000000          0000020220920 0000000000000000000 
22857250200152314014401409493504204 2022092000000285000S01  080020379553282AMARAL DE OLIVEIRA Milton Lu  000000000000          0000020220920 0000000000000000000 
22857250200171994014401409505722563 2022092000000285000S01  080027401966396KRASUSCKI GILDA PAMELA        000000000000          0000020220920 0000000000000000000 
22857250200117184014401409475426041 2022092000000285000S01  080020318804711Posdeley Dario Samuel         000000000000          0000020220920 0000000000000000000 
22857250200176734014401409530566541 2022092000000285000S01  080020418327252González Nahuel Simón         000000000000          0000020220920 0000000000000000000 
22857250200133974014401409483674173 2022092000000285000S01  080020334861210Franco Hector Daniel          000000000000          0000020220920 0000000000000000000 
22857250200163504014401409499766002 2022092000000237500S01  080020344462985GARCIA COSTAGANNA Mauro Artu  000000000000          0000020220920 0000000000000000000 
22857250200095504014401409472852469 2022092000000237500S01  080023258745639Jardin Sergio Oscar           000000000000          0000020220920 0000000000000000000 
22857250200110044014401409409346793 2022092000000237500S01  080020274567474Villalba Walter Joaquin       000000000000          0000020220920 0000000000000000000 
22857250200108134014401409409331702 2022092000000237500S01  080020246018244Zarza Cristian David          000000000000          0000020220920 0000000000000000000 
22857250200122214014401409409365084 2022092000000237500S01  080020324665715Acosta Matias Sebastian       000000000000          0000020220920 0000000000000000000 
22857250200122134014401409409354567 2022092000000237500S01  080020295961296Mendez Juan Carlos            000000000000          0000020220920 0000000000000000000 
22857250200149594014401409478375919 2022092000000237500S01  080020188377786Cardozo Miguel Angel          000000000000          0000020220920 0000000000000000000 
22857250200168574014401409531442149 2022092000000285000S01  080020404124146González Matías Alberto       000000000000          0000020220920 0000000000000000000 
22857250200176974014401409534049514 2022092000000285000S01  080027412947229Lugo Carolina Belén           000000000000          0000020220920 0000000000000000000 
22857250200170464014401409528832429 2022092000000285000S01  080027364080730Zarate Belén Carolina         000000000000          0000020220920 0000000000000000000 
22857250200183174014401409528832416 2022092000000285000S01  080020364574917Amarilla Matías Sebastián     000000000000          0000020220920 0000000000000000000 
22857250200106314014401409409358028 2022092000000285000S01  080020303982982Cabaña Sergio Claudio         000000000000          0000020220920 0000000000000000000 
22857250200170414014401409532163944 2022092000000285000S01  080020413032416Wurm Armando Agustín          000000000000          0000020220920 0000000000000000000 
22857250200126874014401409502197111 2022092000000285000S01  080020306388860Silka Roberto Ariel           000000000000          0000020220920 0000000000000000000 
22857250200103594014401409469844334 2022092000000285000S01  080020315379041Fernandez Rubén Marcelo       000000000000          0000020220920 0000000000000000000 
22857250200193584014405409538761061 2022092000000285000S01  080020414186360NOBILI ADRIAN ANGEL           000000000000          0000020220920 0000000000000000000 
22857250200150474014401409478278988 2022092000000285000S01  080027403374038Medina Elizabeth Mariana      000000000000          0000020220920 0000000000000000000 
22857250200193524014405409543159684 2022092000000285000S01  080020442793280NACIMIENTO FABIO EZEQUIEL     000000000000          0000020220920 0000000000000000000 
22857250200167354014401409520170318 2022092000000570000S01  080020374732308BONDARENGO SEBASTIAN MATIAS   000000000000          0000020220920 0000000000000000000 
22857250200118614014401409409368320 2022092000000285000S01  080020341406413Gonzalez Lucas Vianey         000000000000          0000020220920 0000000000000000000 
22857250200141714014401409469926564 2022092000000285000S01  080027297274304FERREYRA FLORENCIA EMILCE     000000000000          0000020220920 0000000000000000000 
22857250200132204014401409459674468 2022092000000285000S01  080027350079357Schiaffino Romina soledad     000000000000          0000020220920 0000000000000000000 
22857250200148024014401409478493059 2022092000000285000S01  080027350055776Nosiglia Silvia Soledad       000000000000          0000020220920 0000000000000000000 
22857250200110224014401409409352895 2022092000000285000S01  080027290103075Cáceres Olga Beatriz          000000000000          0000020220920 0000000000000000000 
22857250200187734014402909530847767 2022092000000285000S01  080027387786045Larramendi Melisa Anahí       000000000000          0000020220920 0000000000000000000 
22857250200112824014401409409354958 2022092000000570000S01  080020296331059Servian Hector Alejandro      000000000000          0000020220920 0000000000000000000 
22857250200163824014401409500999335 2022092000000285000S01  080020403395510KSNCERWICZ ANGEL GABRIEL      000000000000          0000020220920 0000000000000000000 
22857250200167894014401409505722521 2022092000000285000S01  080020401954075DIAZ RICARDO JOAQUIN          000000000000          0000020220920 0000000000000000000 
22857250200108144014401409409363178 2022092000000285000S01  080020318494925Zarza Juan Eduardo            000000000000          0000020220920 0000000000000000000 
22857250200181114014402109539032087 2022092000000285000S01  080020426666678CARBALLO LUCAS RODRIGO        000000000000          0000020220920 0000000000000000000 
22857250200142194014401409470032898 2022092000000285000S01  080027318767446MAIDANA CINTIA PAOLA          000000000000          0000020220920 0000000000000000000 
22857250200098504014401409471338249 2022092000000285000S01  080027280175132De Olivera Liliana Vanesa     000000000000          0000020220920 0000000000000000000 
22857250200122324014401409410657161 2022092000000285000S01  080020343321679Alvez Lucas Luciano           000000000000          0000020220920 0000000000000000000 
22857250200099334014401409492525976 2022092000000285000S01  080020306194152Augusto Matias Emanuel        000000000000          0000020220920 0000000000000000000 
22857250200133674014401409484421677 2022092000000285000S01  080020348240251Espindola Jorge Horacio       000000000000          0000020220920 0000000000000000000 
22857250200192024014403709538494796 2022092000000285000S01  080027413047876Enriquez Ivana Marisol        000000000000          0000020220920 0000000000000000000 
22857250200133624014401409479516980 2022092000000285000S01  080027316579197Enriquez Andrea Patricia      000000000000          0000020220920 0000000000000000000 
22857250200187834014405409539397825 2022092000000285000S01  080020420032928López Gabriel Esteban         000000000000          0000020220920 0000000000000000000 
22857250200163614014401409500999276 2022092000000285000S01  080020403368238GOMEZ JUAN NOEL               000000000000          0000020220920 0000000000000000000 
22857250200157484014401409491039834 2022092000002327500S01  080020362689709MARTINOTTI ARMANDO SAMUEL     000000000000          0000020220920 0000000000000000000 
22857250200177064014401409516749917 2022092000002612500S01  080020339473014POUCH JOSE IGNACIO            000000000000          0000020220920 0000000000000000000 
22857250200145564014401409491321405 2022092000002612500S01  080020392206400DEBELUK Leando Emanuel        000000000000          0000020220920 0000000000000000000 
22857250200158074014401409489279039 2022092000001472500S01  080020362099812ALFONSO RODRIGO NICOLAS       000000000000          0000020220920 0000000000000000000 
22857250200120664014401409409354831 2022092000002042500S01  080020296111245Manubens Calvet Luis Gilbert  000000000000          0000020220920 0000000000000000000 
22857250200114594014401409411235836 2022092000002612500S01  080020315022135Gomez Gamarra Miguel Angel    000000000000          0000020220920 0000000000000000000 
22857250200149334014401409478846288 2022092000001140000S01  080027264874055Bogado Patricia Rosana        000000000000          0000020220920 0000000000000000000 
22857250200127814014401409458732284 2022092000000570000S01  080020307902142Chemes Ramón Nicolás          000000000000          0000020220920 0000000000000000000 
22857250200103644014401409409333807 2022092000000220000S01  080020254896935Gauna Jorge Orlando           000000000000          0000020220920 0000000000000000000 
22857250200127264014401409458298533 2022092000000110000S01  080020298546427Albornoz Victor Hugo          000000000000          0000020220920 0000000000000000000 
22857250200111044014401409409345350 2022092000000522500S01  080020270542213Arrua Miguel Angel            000000000000          0000020220920 0000000000000000000 
22857250200147684014401409517792549 2022092000000192500S01  080023348925024Hipolito Mariana Yisell       000000000000          0000020220920 0000000000000000000 
22857250200194554014402909539234452 2022092000000192500S01  080027395301662ROJAS NOELIA CAMILA           000000000000          0000020220920 0000000000000000000 
22857250200156264014401409484215827 2022092000000110000S01  080020349716047Sanchez Carlos Ruben          000000000000          0000020220920 0000000000000000000 
22857250200135724014401409496716437 2022092000000137500S01  080027312629939Roa Sandra Soledad            000000000000          0000020220920 0000000000000000000 
22857250200173834014401409504185367 2022092000000137500S01  080020357118523BILLORDO DIEGO GABRIEL        000000000000          0000020220920 0000000000000000000 
22857250200104624014401409411236019 2022092000000220000S01  080020303814729Pereyra César Oscar           000000000000          0000020220920 0000000000000000000 
